:100000000C942A000C943F000C943F000C943F0089
:100010000C943F000C943F000C943F000C943F0064
:100020000C943F000C943F000C943F000C943F0054
:100030000C943F000C943F000C943F000C943F0044
:100040000C943F000C943F000C943F000C943F0034
:100050000C943F0011241FBECFE5D4E0DEBFCDBF1E
:1000600010E0A0E6B0E0EAE7F1E102C005900D92F1
:10007000A037B107D9F70E9441000C94BB080C943B
:100080000000DF93CF930F92CDB7DEB70E945E00E2
:1000900080E690E00E94AA0683EC0E94A20381E021
:1000A0000E94A203198206C089810E94F5068981F7
:1000B0008F5F898389818A30B8F3F1CF0F931F93C3
:1000C000DF93CF93CDB7DEB7C655D0400FB6F894C7
:1000D000DEBF0FBECDBFE4E3F0E08FEF8083E1E34E
:1000E000F0E08FEF8083E9E3F0E08081EAE3F0E085
:1000F0008081EAE3F0E01082E7E2F0E080EE8083C6
:10010000E6E2F0E086E8808383E30E94A203FE013A
:10011000EF5AFF4F80E090E0A0E8BFE38083918337
:10012000A283B3838E01035B1F4FFE01EF5AFF4F83
:10013000608171818281938120E030E04AE753E45D
:100140000E942408DC01CB01F80180839183A28303
:10015000B383FE01E35BFF4F6081718182819381F4
:1001600020E030E040E85FE30E94A307882344F4E6
:10017000FE01E55BFF4F81E090E09183808364C0E6
:10018000FE01E35BFF4F608171818281938120E0FA
:100190003FEF4FE757E40E94200818160CF043C0C9
:1001A000FE01EF5AFF4F608171818281938120E0CF
:1001B00030E040E251E40E942408DC01CB018E01D2
:1001C000055B1F4FBC01CD010E94A707DC01CB01DD
:1001D000F801918380831FC0FE01E75BFF4F89E137
:1001E00090E091838083FE01E75BFF4F80819181E6
:1001F0000197F1F7FE01E75BFF4F91838083DE01FA
:10020000A55BBF4FFE01E55BFF4F808191810197A8
:1002100011969C938E93FE01E55BFF4F8081918147
:100220000097D1F627C08E01055B1F4FFE01E35BEF
:10023000FF4F60817181828193810E94A707DC0159
:10024000CB01F80191838083DE01A95BBF4FFE01E2
:10025000E55BFF4F808191818D939C93FE01E95B6B
:10026000FF4F808191810197F1F7FE01E95BFF4F1C
:100270009183808382E30E94A203FE01ED5BFF4F26
:1002800080E090E0A0E8BFE380839183A283B38302
:100290008E01015C1F4FFE01ED5BFF4F608171819C
:1002A0008281938120E030E04AE753E40E942408F1
:1002B000DC01CB01F80180839183A283B383FE012B
:1002C000FF96608171818281938120E030E040E877
:1002D0005FE30E94A30788232CF481E090E09EAFA7
:1002E0008DAF46C0FE01FF9660817181828193814E
:1002F00020E03FEF4FE757E40E942008181664F50E
:10030000FE01ED5BFF4F608171818281938120E06E
:1003100030E040E251E40E942408DC01CB01BC0142
:10032000CD010E94A707DC01CB019EAF8DAF0FC0AE
:1003300089E190E09CAF8BAF8BAD9CAD0197F1F75D
:100340009CAF8BAF8DAD9EAD01979EAF8DAF8DAD48
:100350009EAD009769F716C0FE01FF96608171811E
:10036000828193810E94A707DC01CB019EAF8DAFF4
:100370008DAD9EAD9AAF89AF89AD9AAD0197F1F77A
:100380009AAF89AF88E20E94A20380E090E0A0E8E3
:10039000BFE38DAB9EABAFABB8AF6DA97EA98FA904
:1003A00098AD20E030E04AE753E40E942408DC01E5
:1003B000CB0189AB9AABABABBCAB69A97AA98BA9D2
:1003C0009CA920E030E040E85FE30E94A307882377
:1003D0002CF481E090E098AB8FA73FC069A97AA97F
:1003E0008BA99CA920E03FEF4FE757E40E9420082B
:1003F00018164CF56DA97EA98FA998AD20E030E0C4
:1004000040E251E40E942408DC01CB01BC01CD0193
:100410000E94A707DC01CB0198AB8FA70FC089E131
:1004200090E09EA78DA78DA59EA50197F1F79EA7A9
:100430008DA78FA598A9019798AB8FA78FA598A98D
:10044000009769F714C069A97AA98BA99CA90E9491
:10045000A707DC01CB0198AB8FA78FA598A99CA714
:100460008BA78BA59CA50197F1F79CA78BA78EE086
:100470000E94A20380E090E0A0E8BFE38FA398A7CA
:10048000A9A7BAA76FA178A589A59AA520E030E011
:100490004AE753E40E942408DC01CB018BA39CA310
:1004A000ADA3BEA36BA17CA18DA19EA120E030E0F5
:1004B00040E85FE30E94A30788232CF481E090E0EA
:1004C0009AA389A33FC06BA17CA18DA19EA120E02E
:1004D0003FEF4FE757E40E94200818164CF56FA134
:1004E00078A589A59AA520E030E040E251E40E9479
:1004F0002408DC01CB01BC01CD010E94A707DC016F
:10050000CB019AA389A30FC089E190E098A38F8FB4
:100510008F8D98A10197F1F798A38F8F89A19AA148
:1005200001979AA389A389A19AA1009769F714C09A
:100530006BA17CA18DA19EA10E94A707DC01CB012C
:100540009AA389A389A19AA19E8F8D8F8D8D9E8D4F
:100550000197F1F79E8F8D8F81E00E94A20380E0CA
:1005600090E0A0E8BFE3898F9A8FAB8FBC8F698D35
:100570007A8D8B8D9C8D20E030E04AE753E40E9419
:100580002408DC01CB018D8B9E8BAF8BB88F6D89DE
:100590007E898F89988D20E030E040E85FE30E94FB
:1005A000A30788232CF481E090E09C8B8B8B3FC0C9
:1005B0006D897E898F89988D20E03FEF4FE757E462
:1005C0000E94200818164CF5698D7A8D8B8D9C8DB4
:1005D00020E030E040E251E40E942408DC01CB013D
:1005E000BC01CD010E94A707DC01CB019C8B8B8B4A
:1005F0000FC089E190E09A8B898B89899A8901974C
:10060000F1F79A8B898B8B899C8901979C8B8B8BBB
:100610008B899C89009769F714C06D897E898F89C1
:10062000988D0E94A707DC01CB019C8B8B8B8B895B
:100630009C89988B8F878F8598890197F1F7988B84
:100640008F8786E00E94A20380E090E0A0E8BFE3ED
:100650008B879C87AD87BE876B857C858D859E85C6
:1006600020E030E04AE753E40E942408DC01CB019B
:100670008F839887A987BA876F81788589859A85BE
:1006800020E030E040E85FE30E94A30788232CF4D9
:1006900081E090E09E838D833FC06F81788589855E
:1006A0009A8520E03FEF4FE757E40E942008181694
:1006B0004CF56B857C858D859E8520E030E040E2A1
:1006C00051E40E942408DC01CB01BC01CD010E9451
:1006D000A707DC01CB019E838D830FC089E190E0E9
:1006E0009C838B838B819C810197F1F79C838B8307
:1006F0008D819E8101979E838D838D819E81009740
:1007000069F714C06F81788589859A850E94A7074B
:10071000DC01CB019E838D838D819E819A838983A9
:1007200089819A810197F1F79A838983CA5ADF4FA9
:100730000FB6F894DEBF0FBECDBFCF91DF911F91F2
:100740000F910895DF93CF93CDB7DEB7AB970FB678
:10075000F894DEBF0FBECDBF8BA7E5E3F0E08BA51D
:10076000807F8083E2E3F0E080E8808380E090E0B7
:10077000A0E8BFE38FA398A7A9A7BAA76FA178A500
:1007800089A59AA520E030E04AE753E40E942408B6
:10079000DC01CB018BA39CA3ADA3BEA36BA17CA169
:1007A0008DA19EA120E030E040E85FE30E94A30716
:1007B00088232CF481E090E09AA389A33FC06BA129
:1007C0007CA18DA19EA120E03FEF4FE757E40E945E
:1007D000200818164CF56FA178A589A59AA520E0E8
:1007E00030E040E251E40E942408DC01CB01BC016E
:1007F000CD010E94A707DC01CB019AA389A30FC0FA
:1008000089E190E098A38F8F8F8D98A10197F1F7E0
:1008100098A38F8F89A19AA101979AA389A389A1EF
:100820009AA1009769F714C06BA17CA18DA19EA12C
:100830000E94A707DC01CB019AA389A389A19AA1F1
:100840009E8F8D8F8D8D9E8D0197F1F79E8F8D8F51
:10085000E2E3F0E01082E5E3F0E08BA58295807F93
:100860008083E2E3F0E080E8808380E090E0A0E82D
:10087000BFE3898F9A8FAB8FBC8F698D7A8D8B8DFB
:100880009C8D20E030E04AE753E40E942408DC011C
:10089000CB018D8B9E8BAF8BB88F6D897E898F89B5
:1008A000988D20E030E040E85FE30E94A3078823B2
:1008B0002CF481E090E09C8B8B8B3FC06D897E890E
:1008C0008F89988D20E03FEF4FE757E40E94200882
:1008D00018164CF5698D7A8D8B8D9C8D20E030E05B
:1008E00040E251E40E942408DC01CB01BC01CD01AF
:1008F0000E94A707DC01CB019C8B8B8B0FC089E189
:1009000090E09A8B898B89899A890197F1F79A8B64
:10091000898B8B899C8901979C8B8B8B8B899C897C
:10092000009769F714C06D897E898F89988D0E9420
:10093000A707DC01CB019C8B8B8B8B899C89988BC7
:100940008F878F8598890197F1F7988B8F87E2E3DE
:10095000F0E0108280E090E0A8E4B2E48B879C870E
:10096000AD87BE876B857C858D859E8520E030E0D8
:100970004AE753E40E942408DC01CB018F83988767
:10098000A987BA876F81788589859A8520E030E0CC
:1009900040E85FE30E94A30788232CF481E090E005
:1009A0009E838D833FC06F81788589859A8520E0FD
:1009B0003FEF4FE757E40E94200818164CF56B856F
:1009C0007C858D859E8520E030E040E251E40E94E8
:1009D0002408DC01CB01BC01CD010E94A707DC018A
:1009E000CB019E838D830FC089E190E09C838B8334
:1009F0008B819C810197F1F79C838B838D819E81F4
:100A000001979E838D838D819E81009769F714C025
:100A10006F81788589859A850E94A707DC01CB01C3
:100A20009E838D838D819E819A83898389819A811A
:100A30000197F1F79A838983AB960FB6F894DEBFDE
:100A40000FBECDBFCF91DF910895DF93CF93CDB788
:100A5000DEB7AB970FB6F894DEBF0FBECDBF8BA746
:100A6000E5E3F0E08BA5807F8083E2E3F0E080ECBB
:100A7000808380E090E0A0E8BFE38FA398A7A9A7B8
:100A8000BAA76FA178A589A59AA520E030E04AE72A
:100A900053E40E942408DC01CB018BA39CA3ADA3EB
:100AA000BEA36BA17CA18DA19EA120E030E040E817
:100AB0005FE30E94A30788232CF481E090E09AA3CF
:100AC00089A33FC06BA17CA18DA19EA120E03FEF37
:100AD0004FE757E40E94200818164CF56FA178A53F
:100AE00089A59AA520E030E040E251E40E94240864
:100AF000DC01CB01BC01CD010E94A707DC01CB01C9
:100B00009AA389A30FC089E190E098A38F8F8F8D5E
:100B100098A10197F1F798A38F8F89A19AA10197C6
:100B20009AA389A389A19AA1009769F714C06BA120
:100B30007CA18DA19EA10E94A707DC01CB019AA3F5
:100B400089A389A19AA19E8F8D8F8D8D9E8D0197EE
:100B5000F1F79E8F8D8FE2E3F0E080E48083E5E3A0
:100B6000F0E08BA58295807F8083E2E3F0E080EC6B
:100B7000808380E090E0A0E8BFE3898F9A8FAB8FFD
:100B8000BC8F698D7A8D8B8D9C8D20E030E04AE79B
:100B900053E40E942408DC01CB018D8B9E8BAF8B2C
:100BA000B88F6D897E898F89988D20E030E040E88C
:100BB0005FE30E94A30788232CF481E090E09C8BE4
:100BC0008B8B3FC06D897E898F89988D20E03FEFA8
:100BD0004FE757E40E94200818164CF5698D7A8D6E
:100BE0008B8D9C8D20E030E040E251E40E9424088F
:100BF000DC01CB01BC01CD010E94A707DC01CB01C8
:100C00009C8B8B8B0FC089E190E09A8B898B8989B3
:100C10009A890197F1F79A8B898B8B899C89019727
:100C20009C8B8B8B8B899C89009769F714C06D898D
:100C30007E898F89988D0E94A707DC01CB019C8B50
:100C40008B8B8B899C89988B8F878F85988901974F
:100C5000F1F7988B8F87E2E3F0E080E4808380E017
:100C600090E0A8E4B2E48B879C87AD87BE876B8554
:100C70007C858D859E8520E030E04AE753E40E9424
:100C80002408DC01CB018F839887A987BA876F81FD
:100C9000788589859A8520E030E040E85FE30E940E
:100CA000A30788232CF481E090E09E838D833FC0CE
:100CB0006F81788589859A8520E03FEF4FE757E47B
:100CC0000E94200818164CF56B857C858D859E85C5
:100CD00020E030E040E251E40E942408DC01CB0136
:100CE000BC01CD010E94A707DC01CB019E838D834F
:100CF0000FC089E190E09C838B838B819C8101975D
:100D0000F1F79C838B838D819E8101979E838D83D8
:100D10008D819E81009769F714C06F8178858985E0
:100D20009A850E94A707DC01CB019E838D838D816C
:100D30009E819A83898389819A810197F1F79A83A9
:100D40008983AB960FB6F894DEBF0FBECDBFCF91AF
:100D5000DF910895DF93CF9300D00F92CDB7DEB728
:100D60009B838A8319820EC08981282F30E08A8173
:100D70009B81FC01E20FF31F80810E942505898180
:100D80008F5F89838981282F30E08A819B81FC01D4
:100D9000E20FF31F8081882339F70F900F900F9097
:100DA000CF91DF910895DF93CF93CDB7DEB7A6E261
:100DB000B0E0E6E2F0E0808180648C93E6E2F0E06F
:100DC0008081882F90E0807190700097B9F3A6E23F
:100DD000B0E0E6E2F0E0808180618C93E4E2F0E054
:100DE00080819181CF91DF910895DF93CF93CDB72B
:100DF000DEB762970FB6F894DEBF0FBECDBF8A8B09
:100E0000188A83EC8F871AC08A899AE0692F0E941A
:100E1000AF08892F898B8A899AE0692F0E94AF08D1
:100E20008A8B8F850E94A2038989805D0E94250597
:100E30008F8581508F8788898F5F888B88898330E1
:100E400018F385EC0E94A2038CE690E00E94AA06AB
:100E500080E090E0A0EAB0E48B879C87AD87BE87F6
:100E60006B857C858D859E8520E030E04AE753E4E4
:100E70000E942408DC01CB018F839887A987BA8759
:100E80006F81788589859A8520E030E040E85FE3CE
:100E90000E94A30788232CF481E090E09E838D8339
:100EA0003FC06F81788589859A8520E03FEF4FE7C5
:100EB00057E40E94200818164CF56B857C858D85BB
:100EC0009E8520E030E040E251E40E942408DC01ED
:100ED000CB01BC01CD010E94A707DC01CB019E83A1
:100EE0008D830FC089E190E09C838B838B819C81F3
:100EF0000197F1F79C838B838D819E8101979E835F
:100F00008D838D819E81009769F714C06F817885EC
:100F100089859A850E94A707DC01CB019E838D837A
:100F20008D819E819A83898389819A810197F1F7C6
:100F30009A83898362960FB6F894DEBF0FBECDBF49
:100F4000CF91DF9108952FD008F481E0089557D014
:100F500088F09F5790F0B92F9927B751A0F0D1F0A2
:100F6000660F771F881F991F1AF0BA95C9F712C02C
:100F7000B13081F05ED0B1E008955BC0672F782F6B
:100F80008827B85F39F0B93FCCF386957795679598
:100F9000B395D9F73EF490958095709561957F4F04
:100FA0008F4F9F4F0895990F0008550FAA0BE0E847
:100FB000FEEF16161706E807F907C0F0121613061B
:100FC000E407F50798F0621B730B840B950B39F45B
:100FD0000A2661F0232B242B252B21F408950A26C1
:100FE00009F4A140A6958FEF811D811D089557FD3D
:100FF0009058440F551F59F05F3F71F04795880F87
:1010000097FB991F61F09F3F79F08795089512161D
:1010100013061406551FF2CF4695F1DF08C01616C9
:1010200017061806991FF1CF86957105610508947A
:101030000895E894BB2766277727CB0197F9089591
:10104000B2DF08F48FEF08950BD078C069D028F094
:101050006ED018F0952309F05AC05FC01124EACF72
:10106000C6DFA0F3959FD1F3950F50E0551F629F07
:10107000F001729FBB27F00DB11D639FAA27F00DF1
:10108000B11DAA1F649F6627B00DA11D661F829F18
:101090002227B00DA11D621F739FB00DA11D621FFD
:1010A000839FA00D611D221F749F3327A00D611D1A
:1010B000231F849F600D211D822F762F6A2F1124FC
:1010C0009F5750408AF0E1F088234AF0EE0FFF1F4F
:1010D000BB1F661F771F881F91505040A9F79E3F86
:1010E000510570F014C0A6CF5F3FECF3983EDCF3DF
:1010F000869577956795B795F795E7959F5FC1F7C3
:10110000FE2B880F911D9695879597F9089597F96D
:101110009F6780E870E060E008959FEF80EC08959D
:1011200000240A94161617061806090608950024C6
:101130000A9412161306140605060895092E039440
:10114000000C11F4882352F0BB0F40F4BF2B11F4B4
:1011500060FF04C06F5F7F4F8F4F9F4F0895991BB3
:1011600079E004C0991F961708F0961B881F7A959E
:0A117000C9F780950895F894FFCFA9
:10117A005374617274696E672E2E2E00202A430002
:00000001FF
