:100000000C942A000C943F000C943F000C943F0089
:100010000C943F000C943F000C943F000C943F0064
:100020000C943F000C943F000C943F000C943F0054
:100030000C943F000C943F000C943F000C943F0044
:100040000C943F000C943F000C943F000C943F0034
:100050000C943F0011241FBECFE5D4E0DEBFCDBF1E
:1000600010E0A0E6B0E0EAEFF5E102C005900D92E5
:10007000AA38B107D9F70E9441000C94FB0A0C94EE
:100080000000DF93CF93CDB7DEB7E9970FB6F894B2
:10009000DEBF0FBECDBF0E94330280E690E00E941B
:1000A000C60980E090E0A0E2B1E48DAB9EABAFABBF
:1000B000B8AF6DA97EA98FA998AD20E030E04AE7DE
:1000C00053E40E94700ADC01CB0189AB9AABABAB65
:1000D000BCAB69A97AA98BA99CA920E030E040E8D3
:1000E0005FE30E94EF0988232CF481E090E098AB55
:1000F0008FA73FC069A97AA98BA99CA920E03FEFEF
:100100004FE757E40E946C0A18164CF56DA97EA9BA
:100110008FA998AD20E030E040E251E40E94700ADF
:10012000DC01CB01BC01CD010E94F309DC01CB0154
:1001300098AB8FA70FC089E190E09EA78DA78DA5F2
:100140009EA50197F1F79EA78DA78FA598A9019766
:1001500098AB8FA78FA598A9009769F714C069A9D4
:100160007AA98BA99CA90E94F309DC01CB0198AB69
:100170008FA78FA598A99CA78BA78BA59CA5019756
:10018000F1F79CA78BA781E00E94BF0780E090E079
:10019000A0E0B0E48FA398A7A9A7BAA76FA178A5FC
:1001A00089A59AA520E030E04AE753E40E94700A4E
:1001B000DC01CB018BA39CA3ADA3BEA36BA17CA14F
:1001C0008DA19EA120E030E040E85FE30E94EF09AE
:1001D00088232CF481E090E09AA389A33FC06BA10F
:1001E0007CA18DA19EA120E03FEF4FE757E40E9444
:1001F0006C0A18164CF56FA178A589A59AA520E080
:1002000030E040E251E40E94700ADC01CB01BC0105
:10021000CD010E94F309DC01CB019AA389A30FC091
:1002200089E190E098A38F8F8F8D98A10197F1F7C6
:1002300098A38F8F89A19AA101979AA389A389A1D5
:100240009AA1009769F714C06BA17CA18DA19EA112
:100250000E94F309DC01CB019AA389A389A19AA189
:100260009E8F8D8F8D8D9E8D0197F1F79E8F8D8F37
:10027000E8E3F0E080EF808380E090E0A0EAB1E482
:10028000898F9A8FAB8FBC8F698D7A8D8B8D9C8D6A
:1002900020E030E04AE753E40E94700ADC01CB0121
:1002A0008D8B9E8BAF8BB88F6D897E898F89988D52
:1002B00020E030E040E85FE30E94EF0988232CF45F
:1002C00081E090E09C8B8B8B3FC06D897E898F890C
:1002D000988D20E03FEF4FE757E40E946C0A181614
:1002E0004CF5698D7A8D8B8D9C8D20E030E040E25D
:1002F00051E40E94700ADC01CB01BC01CD010E94D7
:10030000F309DC01CB019C8B8B8B0FC089E190E062
:100310009A8B898B89899A890197F1F79A8B898BB6
:100320008B899C8901979C8B8B8B8B899C890097EF
:1003300069F714C06D897E898F89988D0E94F309B1
:10034000DC01CB019C8B8B8B8B899C89988B8F8755
:100350008F8598890197F1F7988B8F87E6E3F0E016
:10036000808189AF89AD803F09F482CF80E090E041
:10037000A0EAB1E48B879C87AD87BE876B857C85BF
:100380008D859E8520E030E04AE753E40E94700AA4
:10039000DC01CB018F839887A987BA876F81788525
:1003A00089859A8520E030E040E85FE30E94EF090C
:1003B00088232CF481E090E09E838D833FC06F8181
:1003C000788589859A8520E03FEF4FE757E40E94C2
:1003D0006C0A18164CF56B857C858D859E8520E012
:1003E00030E040E251E40E94700ADC01CB01BC0124
:1003F000CD010E94F309DC01CB019E838D830FC0E8
:1004000089E190E09C838B838B819C810197F1F73C
:100410009C838B838D819E8101979E838D838D81AB
:100420009E81009769F714C06F81788589859A85C8
:100430000E94F309DC01CB019E838D838D819E8117
:100440009A83898389819A810197F1F79A838983B5
:10045000E6E3F0E0808189AF89AD803F09F408CF01
:100460000E942A0405CFDF93CF93CDB7DEB7E8977C
:100470000FB6F894DEBF0FBECDBFE7E3F0E08FE02C
:100480008083E4E3F0E08FEF8083E1E3F0E080EC51
:100490008083E8E3F0E080EF808388E30E94BF0779
:1004A00080E090E0A0E8BFE38DAB9EABAFABB8AF10
:1004B0006DA97EA98FA998AD20E030E04AE753E40A
:1004C0000E94700ADC01CB0189AB9AABABABBCAB31
:1004D00069A97AA98BA99CA920E030E040E85FE3F4
:1004E0000E94EF0988232CF481E090E098AB8FA75D
:1004F0003FC069A97AA98BA99CA920E03FEF4FE7EB
:1005000057E40E946C0A18164CF56DA97EA98FA9B4
:1005100098AD20E030E040E251E40E94700ADC0136
:10052000CB01BC01CD010E94F309DC01CB0198ABEA
:100530008FA70FC089E190E09EA78DA78DA59EA5EE
:100540000197F1F79EA78DA78FA598A9019798AB62
:100550008FA78FA598A9009769F714C069A97AA9F0
:100560008BA99CA90E94F309DC01CB0198AB8FA752
:100570008FA598A99CA78BA78BA59CA50197F1F7A0
:100580009CA78BA786E00E94BF0780E090E0A0E8D0
:10059000BFE38FA398A7A9A7BAA76FA178A589A53C
:1005A0009AA520E030E04AE753E40E94700ADC019B
:1005B000CB018BA39CA3ADA3BEA36BA17CA18DA1FA
:1005C0009EA120E030E040E85FE30E94EF0988232D
:1005D0002CF481E090E09AA389A33FC06BA17CA199
:1005E0008DA19EA120E03FEF4FE757E40E946C0AE7
:1005F00018164CF56FA178A589A59AA520E030E0E2
:1006000040E251E40E94700ADC01CB01BC01CD0143
:100610000E94F309DC01CB019AA389A30FC089E1F1
:1006200090E098A38F8F8F8D98A10197F1F798A3F1
:100630008F8F89A19AA101979AA389A389A19AA1D1
:10064000009769F714C06BA17CA18DA19EA10E94A7
:10065000F309DC01CB019AA389A389A19AA19E8FFA
:100660008D8F8D8D9E8D0197F1F79E8F8D8F8EE0F2
:100670000E94BF0780E090E0A0E8BFE3898F9A8FD7
:10068000AB8FBC8F698D7A8D8B8D9C8D20E030E097
:100690004AE753E40E94700ADC01CB018D8B9E8BEC
:1006A000AF8BB88F6D897E898F89988D20E030E07F
:1006B00040E85FE30E94EF0988232CF481E090E09A
:1006C0009C8B8B8B3FC06D897E898F89988D20E0B4
:1006D0003FEF4FE757E40E946C0A18164CF5698DFE
:1006E0007A8D8B8D9C8D20E030E040E251E40E94B9
:1006F000700ADC01CB01BC01CD010E94F309DC01D1
:10070000CB019C8B8B8B0FC089E190E09A8B898BFE
:1007100089899A890197F1F79A8B898B8B899C89B2
:1007200001979C8B8B8B8B899C89009769F714C0F0
:100730006D897E898F89988D0E94F309DC01CB0138
:100740009C8B8B8B8B899C89988B8F878F859889C5
:100750000197F1F7988B8F8781E00E94BF0780E0B7
:1007600090E0A0E0B0E48B879C87AD87BE876B8567
:100770007C858D859E8520E030E04AE753E40E9429
:10078000700ADC01CB018F839887A987BA876F81B4
:10079000788589859A8520E030E040E85FE30E9413
:1007A000EF0988232CF481E090E09E838D833FC085
:1007B0006F81788589859A8520E03FEF4FE757E480
:1007C0000E946C0A18164CF56B857C858D859E857C
:1007D00020E030E040E251E40E94700ADC01CB01ED
:1007E000BC01CD010E94F309DC01CB019E838D8306
:1007F0000FC089E190E09C838B838B819C81019762
:10080000F1F79C838B838D819E8101979E838D83DD
:100810008D819E81009769F714C06F8178858985E5
:100820009A850E94F309DC01CB019E838D838D8123
:100830009E819A83898389819A810197F1F79A83AE
:100840008983E8960FB6F894DEBF0FBECDBFCF9177
:10085000DF9108950F931F93DF93CF93CDB7DEB74A
:10086000C754D0400FB6F894DEBF0FBECDBFE8E34B
:10087000F0E08EEF8083FE01ED5BFF4F80E090E0C3
:10088000A0E8BFE380839183A283B3838E01015CE0
:100890001F4FFE01ED5BFF4F60817181828193816B
:1008A00020E030E04AE753E40E94700ADC01CB010B
:1008B000F80180839183A283B383FE01FF96608158
:1008C00071818281938120E030E040E85FE30E9403
:1008D000EF0988232CF481E090E09EAF8DAF46C0F5
:1008E000FE01FF96608171818281938120E03FEF5C
:1008F0004FE757E40E946C0A181664F5FE01ED5BA1
:10090000FF4F608171818281938120E030E040E27D
:1009100051E40E94700ADC01CB01BC01CD010E94B0
:10092000F309DC01CB019EAF8DAF0FC089E190E0F0
:100930009CAF8BAF8BAD9CAD0197F1F79CAF8BAFAC
:100940008DAD9EAD01979EAF8DAF8DAD9EAD0097E5
:1009500069F716C0FE01FF966081718182819381E3
:100960000E94F309DC01CB019EAF8DAF8DAD9EAD32
:100970009AAF89AF89AD9AAD0197F1F79AAF89AF78
:10098000E6E3F0E0DE01A95BBF4F80818C93E8E3F2
:10099000F0E08081882F90E0817090700097B9F529
:1009A000FE01E95BFF4F8081882F90E0807190709D
:1009B000009729F48AE690E00E94C60928C0FE014B
:1009C000E95BFF4F8081882F90E0807290700097E4
:1009D00029F48CE690E00E94C60919C0FE01E95B8B
:1009E000FF4F8081882F90E080749070009729F4E9
:1009F0008EE690E00E94C6090AC0FE01E95BFF4F47
:100A00008081882324F080E790E00E94C609E8E313
:100A1000F0E08DEF808380E090E0A0E8BFE38DAB55
:100A20009EABAFABB8AF6DA97EA98FA998AD20E002
:100A300030E04AE753E40E94700ADC01CB0189AB45
:100A40009AABABABBCAB69A97AA98BA99CA920E0F6
:100A500030E040E85FE30E94EF0988232CF481E056
:100A600090E098AB8FA73FC069A97AA98BA99CA9F0
:100A700020E03FEF4FE757E40E946C0A18164CF550
:100A80006DA97EA98FA998AD20E030E040E251E445
:100A90000E94700ADC01CB01BC01CD010E94F30968
:100AA000DC01CB0198AB8FA70FC089E190E09EA736
:100AB0008DA78DA59EA50197F1F79EA78DA78FA560
:100AC00098A9019798AB8FA78FA598A9009769F768
:100AD00014C069A97AA98BA99CA90E94F309DC0119
:100AE000CB0198AB8FA78FA598A99CA78BA78BA5A7
:100AF0009CA50197F1F79CA78BA7E6E3F0E0DE0148
:100B0000A95BBF4F80818C93E8E3F0E08081882F60
:100B100090E0827090700097B9F5FE01E95BFF4F9D
:100B20008081882F90E080719070009729F482E78F
:100B300090E00E94C60928C0FE01E95BFF4F80815A
:100B4000882F90E080729070009729F484E790E0FD
:100B50000E94C60919C0FE01E95BFF4F8081882F02
:100B600090E080749070009729F486E790E00E94EE
:100B7000C6090AC0FE01E95BFF4F8081882324F08B
:100B800088E790E00E94C609E8E3F0E08BEF8083FD
:100B900080E090E0A0E8BFE38FA398A7A9A7BAA739
:100BA0006FA178A589A59AA520E030E04AE753E433
:100BB0000E94700ADC01CB018BA39CA3ADA3BEA352
:100BC0006BA17CA18DA19EA120E030E040E85FE315
:100BD0000E94EF0988232CF481E090E09AA389A376
:100BE0003FC06BA17CA18DA19EA120E03FEF4FE70C
:100BF00057E40E946C0A18164CF56FA178A589A5D8
:100C00009AA520E030E040E251E40E94700ADC0145
:100C1000CB01BC01CD010E94F309DC01CB019AA3F9
:100C200089A30FC089E190E098A38F8F8F8D98A141
:100C30000197F1F798A38F8F89A19AA101979AA3A1
:100C400089A389A19AA1009769F714C06BA17CA11F
:100C50008DA19EA10E94F309DC01CB019AA389A377
:100C600089A19AA19E8F8D8F8D8D9E8D0197F1F711
:100C70009E8F8D8FE6E3F0E0DE01A95BBF4F8081A0
:100C80008C93E8E3F0E08081882F90E0847090708E
:100C90000097B9F5FE01E95BFF4F8081882F90E056
:100CA00080719070009729F48AE790E00E94C6094D
:100CB00028C0FE01E95BFF4F8081882F90E08072A1
:100CC0009070009729F48CE790E00E94C60919C043
:100CD000FE01E95BFF4F8081882F90E08074907067
:100CE000009729F48EE790E00E94C6090AC0FE0131
:100CF000E95BFF4F8081882324F080E890E00E9428
:100D0000C609E8E3F0E087EF808380E090E0A0E8A8
:100D1000BFE3898F9A8FAB8FBC8F698D7A8D8B8D56
:100D20009C8D20E030E04AE753E40E94700ADC0129
:100D3000CB018D8B9E8BAF8BB88F6D897E898F8910
:100D4000988D20E030E040E85FE30E94EF098823BF
:100D50002CF481E090E09C8B8B8B3FC06D897E8969
:100D60008F89988D20E03FEF4FE757E40E946C0A8F
:100D700018164CF5698D7A8D8B8D9C8D20E030E0B6
:100D800040E251E40E94700ADC01CB01BC01CD01BC
:100D90000E94F309DC01CB019C8B8B8B0FC089E196
:100DA00090E09A8B898B89899A890197F1F79A8BC0
:100DB000898B8B899C8901979C8B8B8B8B899C89D8
:100DC000009769F714C06D897E898F89988D0E947C
:100DD000F309DC01CB019C8B8B8B8B899C89988BD5
:100DE0008F878F8598890197F1F7988B8F87E6E336
:100DF000F0E0DE01A95BBF4F80818C93E8E3F0E077
:100E00008081882F90E0887090700097B9F5FE017E
:100E1000E95BFF4F8081882F90E080719070009790
:100E200029F482E890E00E94C60928C0FE01E95B2F
:100E3000FF4F8081882F90E080729070009729F496
:100E400084E890E00E94C60919C0FE01E95BFF4FEB
:100E50008081882F90E080749070009729F486E854
:100E600090E00E94C6090AC0FE01E95BFF4F808145
:100E7000882324F088E890E00E94C60980E090E092
:100E8000A0EAB1E48B879C87AD87BE876B857C85A4
:100E90008D859E8520E030E04AE753E40E94700A89
:100EA000DC01CB018F839887A987BA876F8178850A
:100EB00089859A8520E030E040E85FE30E94EF09F1
:100EC00088232CF481E090E09E838D833FC06F8166
:100ED000788589859A8520E03FEF4FE757E40E94A7
:100EE0006C0A18164CF56B857C858D859E8520E0F7
:100EF00030E040E251E40E94700ADC01CB01BC0109
:100F0000CD010E94F309DC01CB019E838D830FC0CC
:100F100089E190E09C838B838B819C810197F1F721
:100F20009C838B838D819E8101979E838D838D8190
:100F30009E81009769F714C06F81788589859A85AD
:100F40000E94F309DC01CB019E838D838D819E81FC
:100F50009A83898389819A810197F1F79A8389839A
:100F600081E00E94BF07C95BDF4F0FB6F894DEBF78
:100F70000FBECDBFCF91DF911F910F910895DF93E9
:100F8000CF93CDB7DEB76D970FB6F894DEBF0FBE27
:100F9000CDBF8D8FE5E3F0E08D8D8083E2E3F0E05F
:100FA00080E8808380E090E0A0E8BFE3898F9A8F9B
:100FB000AB8FBC8F698D7A8D8B8D9C8D20E030E05E
:100FC0004AE753E40E94700ADC01CB018D8B9E8BB3
:100FD000AF8BB88F6D897E898F89988D20E030E046
:100FE00040E85FE30E94EF0988232CF481E090E061
:100FF0009C8B8B8B3FC06D897E898F89988D20E07B
:101000003FEF4FE757E40E946C0A18164CF5698DC4
:101010007A8D8B8D9C8D20E030E040E251E40E947F
:10102000700ADC01CB01BC01CD010E94F309DC0197
:10103000CB019C8B8B8B0FC089E190E09A8B898BC5
:1010400089899A890197F1F79A8B898B8B899C8979
:1010500001979C8B8B8B8B899C89009769F714C0B7
:101060006D897E898F89988D0E94F309DC01CB01FF
:101070009C8B8B8B8B899C89988B8F878F8598898C
:101080000197F1F7988B8F87E2E3F0E0108280E020
:1010900090E0A0E2B2E48B879C87AD87BE876B852A
:1010A0007C858D859E8520E030E04AE753E40E94F0
:1010B000700ADC01CB018F839887A987BA876F817B
:1010C000788589859A8520E030E040E85FE30E94DA
:1010D000EF0988232CF481E090E09E838D833FC04C
:1010E0006F81788589859A8520E03FEF4FE757E447
:1010F0000E946C0A18164CF56B857C858D859E8543
:1011000020E030E040E251E40E94700ADC01CB01B3
:10111000BC01CD010E94F309DC01CB019E838D83CC
:101120000FC089E190E09C838B838B819C81019728
:10113000F1F79C838B838D819E8101979E838D83A4
:101140008D819E81009769F714C06F8178858985AC
:101150009A850E94F309DC01CB019E838D838D81EA
:101160009E819A83898389819A810197F1F79A8375
:1011700089836D960FB6F894DEBF0FBECDBFCF91B9
:10118000DF910895DF93CF93CDB7DEB76D970FB69C
:10119000F894DEBF0FBECDBF8D8FE5E3F0E08D8DFF
:1011A0008083E2E3F0E080EC808380E090E0A0E8E0
:1011B000BFE3898F9A8FAB8FBC8F698D7A8D8B8DB2
:1011C0009C8D20E030E04AE753E40E94700ADC0185
:1011D000CB018D8B9E8BAF8BB88F6D897E898F896C
:1011E000988D20E030E040E85FE30E94EF0988231B
:1011F0002CF481E090E09C8B8B8B3FC06D897E89C5
:101200008F89988D20E03FEF4FE757E40E946C0AEA
:1012100018164CF5698D7A8D8B8D9C8D20E030E011
:1012200040E251E40E94700ADC01CB01BC01CD0117
:101230000E94F309DC01CB019C8B8B8B0FC089E1F1
:1012400090E09A8B898B89899A890197F1F79A8B1B
:10125000898B8B899C8901979C8B8B8B8B899C8933
:10126000009769F714C06D897E898F89988D0E94D7
:10127000F309DC01CB019C8B8B8B8B899C89988B30
:101280008F878F8598890197F1F7988B8F87E2E395
:10129000F0E080E4808380E090E0A0E2B2E48B871D
:1012A0009C87AD87BE876B857C858D859E8520E07C
:1012B00030E04AE753E40E94700ADC01CB018F83DF
:1012C0009887A987BA876F81788589859A8520E074
:1012D00030E040E85FE30E94EF0988232CF481E0CE
:1012E00090E09E838D833FC06F81788589859A8544
:1012F00020E03FEF4FE757E40E946C0A18164CF5C8
:101300006B857C858D859E8520E030E040E251E450
:101310000E94700ADC01CB01BC01CD010E94F309DF
:10132000DC01CB019E838D830FC089E190E09C831B
:101330008B838B819C810197F1F79C838B838D81BB
:101340009E8101979E838D838D819E81009769F791
:1013500014C06F81788589859A850E94F309DC0124
:10136000CB019E838D838D819E819A838983898120
:101370009A810197F1F79A8389836D960FB6F89455
:10138000DEBF0FBECDBFCF91DF910895DF93CF9326
:1013900000D00F92CDB7DEB79B838A8319820EC02F
:1013A0008981282F30E08A819B81FC01E20FF31FA5
:1013B00080810E94C20889818F5F89838981282F5B
:1013C00030E08A819B81FC01E20FF31F808188233A
:1013D00039F70F900F900F90CF91DF9108952FD094
:1013E00008F481E0089557D088F09F5790F0B92F06
:1013F0009927B751A0F0D1F0660F771F881F991F6A
:101400001AF0BA95C9F712C0B13081F05ED0B1E0E0
:1014100008955BC0672F782F8827B85F39F0B93FF0
:10142000CCF3869577956795B395D9F73EF490956B
:101430008095709561957F4F8F4F9F4F0895990FBD
:101440000008550FAA0BE0E8FEEF16161706E8078E
:10145000F907C0F012161306E407F50798F0621BAF
:10146000730B840B950B39F40A2661F0232B242B84
:10147000252B21F408950A2609F4A140A6958FEFA3
:10148000811D811D089557FD9058440F551F59F037
:101490005F3F71F04795880F97FB991F61F09F3F61
:1014A00079F087950895121613061406551FF2CF8A
:1014B0004695F1DF08C0161617061806991FF1CFDA
:1014C00086957105610508940895E894BB27662701
:1014D0007727CB0197F90895B2DF08F48FEF0895CD
:1014E0000BD078C069D028F06ED018F0952309F0A1
:1014F0005AC05FC01124EACFC6DFA0F3959FD1F395
:10150000950F50E0551F629FF001729FBB27F00DB1
:10151000B11D639FAA27F00DB11DAA1F649F662706
:10152000B00DA11D661F829F2227B00DA11D621F55
:10153000739FB00DA11D621F839FA00D611D221F0F
:10154000749F3327A00D611D231F849F600D211DF3
:10155000822F762F6A2F11249F5750408AF0E1F096
:1015600088234AF0EE0FFF1FBB1F661F771F881FDF
:1015700091505040A9F79E3F510570F014C0A6CF7E
:101580005F3FECF3983EDCF3869577956795B795CA
:10159000F795E7959F5FC1F7FE2B880F911D9695F4
:1015A000879597F9089597F99F6780E870E060E064
:1015B00008959FEF80EC089500240A9416161706EC
:1015C00018060906089500240A9412161306140634
:1015D00005060895092E0394000C11F4882352F097
:1015E000BB0F40F4BF2B11F460FF04C06F5F7F4F4F
:0A15F0008F4F9F4F0895F894FFCF2E
:1015FA005072657373206B657900300031003200D8
:10160A003300340035003600370038003900410015
:0A161A004200430044004500460072
:00000001FF
